{
  "_format": "hh-sol-artifact-1",
  "contractName": "OnchainTrustNetwork",
  "sourceName": "contracts/OnchainTrustNetwork.sol",
  "abi": [
    {
      "inputs": [
        {
          "internalType": "address",
          "name": "_initialDAOAdmin",
          "type": "address"
        },
        {
          "internalType": "address",
          "name": "_selfHub",
          "type": "address"
        },
        {
          "internalType": "string",
          "name": "_scopeSeed",
          "type": "string"
        }
      ],
      "stateMutability": "nonpayable",
      "type": "constructor"
    },
    {
      "inputs": [],
      "name": "InvalidDataFormat",
      "type": "error"
    },
    {
      "inputs": [],
      "name": "UnauthorizedCaller",
      "type": "error"
    },
    {
      "anonymous": false,
      "inputs": [
        {
          "indexed": true,
          "internalType": "address",
          "name": "sponsor",
          "type": "address"
        },
        {
          "indexed": true,
          "internalType": "address",
          "name": "candidate",
          "type": "address"
        },
        {
          "indexed": true,
          "internalType": "bytes32",
          "name": "jobIdHash",
          "type": "bytes32"
        },
        {
          "indexed": false,
          "internalType": "uint256",
          "name": "creditsUsed",
          "type": "uint256"
        }
      ],
      "name": "CreditsSpent",
      "type": "event"
    },
    {
      "anonymous": false,
      "inputs": [
        {
          "indexed": true,
          "internalType": "address",
          "name": "candidate",
          "type": "address"
        },
        {
          "indexed": false,
          "internalType": "bool",
          "name": "isHired",
          "type": "bool"
        },
        {
          "indexed": false,
          "internalType": "uint256",
          "name": "timestamp",
          "type": "uint256"
        }
      ],
      "name": "HiringOutcome",
      "type": "event"
    },
    {
      "anonymous": false,
      "inputs": [
        {
          "indexed": true,
          "internalType": "address",
          "name": "reviewer",
          "type": "address"
        },
        {
          "indexed": false,
          "internalType": "uint256",
          "name": "timestamp",
          "type": "uint256"
        }
      ],
      "name": "ReviewerApproved",
      "type": "event"
    },
    {
      "anonymous": false,
      "inputs": [
        {
          "indexed": true,
          "internalType": "address",
          "name": "reviewer",
          "type": "address"
        },
        {
          "indexed": true,
          "internalType": "address",
          "name": "junior",
          "type": "address"
        },
        {
          "indexed": true,
          "internalType": "bytes32",
          "name": "skillHash",
          "type": "bytes32"
        },
        {
          "indexed": false,
          "internalType": "uint8",
          "name": "overallRating",
          "type": "uint8"
        }
      ],
      "name": "SkillRated",
      "type": "event"
    },
    {
      "inputs": [],
      "name": "DAO_ADMIN",
      "outputs": [
        {
          "internalType": "address",
          "name": "",
          "type": "address"
        }
      ],
      "stateMutability": "view",
      "type": "function"
    },
    {
      "inputs": [
        {
          "internalType": "uint256",
          "name": "",
          "type": "uint256"
        }
      ],
      "name": "ReviewerPool",
      "outputs": [
        {
          "internalType": "address",
          "name": "",
          "type": "address"
        }
      ],
      "stateMutability": "view",
      "type": "function"
    },
    {
      "inputs": [
        {
          "internalType": "address",
          "name": "_newReviewer",
          "type": "address"
        }
      ],
      "name": "approveReviewer",
      "outputs": [],
      "stateMutability": "nonpayable",
      "type": "function"
    },
    {
      "inputs": [
        {
          "internalType": "bytes32",
          "name": "",
          "type": "bytes32"
        },
        {
          "internalType": "bytes32",
          "name": "",
          "type": "bytes32"
        },
        {
          "internalType": "bytes",
          "name": "",
          "type": "bytes"
        }
      ],
      "name": "getConfigId",
      "outputs": [
        {
          "internalType": "bytes32",
          "name": "",
          "type": "bytes32"
        }
      ],
      "stateMutability": "pure",
      "type": "function"
    },
    {
      "inputs": [
        {
          "internalType": "string",
          "name": "_input",
          "type": "string"
        }
      ],
      "name": "getHash",
      "outputs": [
        {
          "internalType": "bytes32",
          "name": "",
          "type": "bytes32"
        }
      ],
      "stateMutability": "pure",
      "type": "function"
    },
    {
      "inputs": [],
      "name": "getReviewerPool",
      "outputs": [
        {
          "internalType": "address[]",
          "name": "",
          "type": "address[]"
        }
      ],
      "stateMutability": "view",
      "type": "function"
    },
    {
      "inputs": [
        {
          "internalType": "address",
          "name": "",
          "type": "address"
        }
      ],
      "name": "isReviewer",
      "outputs": [
        {
          "internalType": "bool",
          "name": "",
          "type": "bool"
        }
      ],
      "stateMutability": "view",
      "type": "function"
    },
    {
      "inputs": [
        {
          "internalType": "bytes",
          "name": "output",
          "type": "bytes"
        },
        {
          "internalType": "bytes",
          "name": "userData",
          "type": "bytes"
        }
      ],
      "name": "onVerificationSuccess",
      "outputs": [],
      "stateMutability": "nonpayable",
      "type": "function"
    },
    {
      "inputs": [
        {
          "internalType": "address",
          "name": "_juniorDev",
          "type": "address"
        },
        {
          "internalType": "bytes32",
          "name": "_skillHash",
          "type": "bytes32"
        },
        {
          "internalType": "uint8",
          "name": "_rating",
          "type": "uint8"
        }
      ],
      "name": "rateJunior",
      "outputs": [],
      "stateMutability": "nonpayable",
      "type": "function"
    },
    {
      "inputs": [
        {
          "internalType": "address",
          "name": "_candidate",
          "type": "address"
        },
        {
          "internalType": "bool",
          "name": "_isHired",
          "type": "bool"
        }
      ],
      "name": "recordHiringOutcome",
      "outputs": [],
      "stateMutability": "nonpayable",
      "type": "function"
    },
    {
      "inputs": [],
      "name": "scope",
      "outputs": [
        {
          "internalType": "uint256",
          "name": "",
          "type": "uint256"
        }
      ],
      "stateMutability": "view",
      "type": "function"
    },
    {
      "inputs": [
        {
          "internalType": "address",
          "name": "_candidate",
          "type": "address"
        },
        {
          "internalType": "bytes32",
          "name": "_jobIdHash",
          "type": "bytes32"
        },
        {
          "internalType": "uint256",
          "name": "_credits",
          "type": "uint256"
        }
      ],
      "name": "sponsorApplication",
      "outputs": [],
      "stateMutability": "nonpayable",
      "type": "function"
    },
    {
      "inputs": [
        {
          "internalType": "address",
          "name": "",
          "type": "address"
        }
      ],
      "name": "verifiedUsers",
      "outputs": [
        {
          "internalType": "bool",
          "name": "",
          "type": "bool"
        }
      ],
      "stateMutability": "view",
      "type": "function"
    },
    {
      "inputs": [
        {
          "internalType": "bytes",
          "name": "proofPayload",
          "type": "bytes"
        },
        {
          "internalType": "bytes",
          "name": "userContextData",
          "type": "bytes"
        }
      ],
      "name": "verifySelfProof",
      "outputs": [],
      "stateMutability": "nonpayable",
      "type": "function"
    }
  ],
  "bytecode": "0x60c060405234801561001057600080fd5b50604051611bc8380380611bc883398101604081905261002f916106bc565b6001600160a01b0382166080528181610050308261004b6100f9565b61014e565b60009081556001600160a01b03861660a0819052808252600160208181526040808520805460ff1916841790556003805493840181559094527fc2575a0e9e593c00f959f8c92f12db2869c3395a3b0502d05e2516446f71f85b90910180546001600160a01b0319168317905591514281529093507f5fb95fd72b73781d0cbe4670770a10f114874353461bca03c141f7d6e78d49c592500160405180910390a250505061085d565b60004661a4ec8190036101215773f134707a4c4a3a76b8410fc0294d620a7c34158191505090565b8062aa044c0361014657730a782f7f9f8aac6e0bacaf3cd4aa292c3275c6f291505090565b600091505090565b60006001600160a01b03821661016657506000610204565b6000610172858461020b565b9050600061017f856102cf565b604080518082018252848152602081018390529051632b0aac7f60e11b81529192506001600160a01b0386169163561558fe916101be916004016107aa565b602060405180830381865afa1580156101db573d6000803e3d6000fd5b505050506040513d601f19601f820116820180604052508101906101ff91906107db565b925050505b9392505050565b600080610217846103e7565b9050600061022f61022a8383601f6105c8565b6102cf565b9050600061024361022a84601f602a6105c8565b604080518082018252848152602081018390529051632b0aac7f60e11b81529192506001600160a01b0387169163561558fe91610282916004016107aa565b602060405180830381865afa15801561029f573d6000803e3d6000fd5b505050506040513d601f19601f820116820180604052508101906102c391906107db565b93505050505b92915050565b600080829050601f8151111561033a5760405162461bcd60e51b815260206004820152602560248201527f537472696e6720746f6f206c6f6e6720666f7220426967496e7420636f6e76656044820152643939b4b7b760d91b60648201526084015b60405180910390fd5b6000805b82518110156103df57607f83828151811061035b5761035b6107f4565b016020015160f81c11156103b15760405162461bcd60e51b815260206004820152601c60248201527f4e6f6e2d415343494920636861726163746572206465746563746564000000006044820152606401610331565b8281815181106103c3576103c36107f4565b60209101015160f81c60089290921b919091179060010161033e565b509392505050565b604080518082018252601081526f181899199a1a9b1b9c1cb0b131b232b360811b60208201528151602a80825260608281019094526001600160a01b0385169291600091602082018180368337019050509050600360fc1b81600081518110610452576104526107f4565b60200101906001600160f81b031916908160001a905350600f60fb1b81600181518110610481576104816107f4565b60200101906001600160f81b031916908160001a90535060005b60148110156105bf57826004856104b384600c610820565b602081106104c3576104c36107f4565b1a60f81b6001600160f81b031916901c60f81c60ff16815181106104e9576104e96107f4565b01602001516001600160f81b03191682610504836002610833565b61050f906002610820565b8151811061051f5761051f6107f4565b60200101906001600160f81b031916908160001a905350828461054383600c610820565b60208110610553576105536107f4565b825191901a600f1690811061056a5761056a6107f4565b01602001516001600160f81b03191682610585836002610833565b610590906003610820565b815181106105a0576105a06107f4565b60200101906001600160f81b031916908160001a90535060010161049b565b50949350505050565b60608360006105d7858561084a565b6001600160401b038111156105ee576105ee6106a6565b6040519080825280601f01601f191660200182016040528015610618576020820181803683370190505b509050845b8481101561068057828181518110610637576106376107f4565b01602001516001600160f81b03191682610651888461084a565b81518110610661576106616107f4565b60200101906001600160f81b031916908160001a90535060010161061d565b5095945050505050565b80516001600160a01b03811681146106a157600080fd5b919050565b634e487b7160e01b600052604160045260246000fd5b6000806000606084860312156106d157600080fd5b6106da8461068a565b92506106e86020850161068a565b60408501519092506001600160401b0381111561070457600080fd5b8401601f8101861361071557600080fd5b80516001600160401b0381111561072e5761072e6106a6565b604051601f8201601f19908116603f011681016001600160401b038111828210171561075c5761075c6106a6565b60405281815282820160200188101561077457600080fd5b60005b8281101561079357602081850181015183830182015201610777565b506000602083830101528093505050509250925092565b60408101818360005b60028110156107d25781518352602092830192909101906001016107b3565b50505092915050565b6000602082840312156107ed57600080fd5b5051919050565b634e487b7160e01b600052603260045260246000fd5b634e487b7160e01b600052601160045260246000fd5b808201808211156102c9576102c961080a565b80820281158282048414176102c9576102c961080a565b818103818111156102c9576102c961080a565b60805160a05161133161089760003960008181610109015281816103be01526106610152600081816107a1015261092b01526113316000f3fe608060405234801561001057600080fd5b50600436106100ea5760003560e01c80638386c8601161008c578063d161802b11610066578063d161802b146101ee578063e35fe36614610201578063ee7b216e14610234578063fdc6258a1461024957600080fd5b80638386c860146101b05780638d2d8d6a146101c3578063ada1b319146101d657600080fd5b80635b6beeb9116100c85780635b6beeb91461015b5780636621b67a146101825780636e62d0a81461019557806376fa5a1b1461019d57600080fd5b80631e7c19dc146100ef578063468c8a6114610104578063514d46d314610148575b600080fd5b6101026100fd366004610a56565b61026c565b005b61012b7f000000000000000000000000000000000000000000000000000000000000000081565b6040516001600160a01b0390911681526020015b60405180910390f35b610102610156366004610a89565b6103b3565b610174610169366004610b7f565b805160209091012090565b60405190815260200161013f565b610102610190366004610bcf565b610527565b600054610174565b6101026101ab366004610c26565b610656565b61012b6101be366004610c5d565b61076c565b6101026101d1366004610c96565b610796565b6101746101e4366004610cfd565b6130399392505050565b6101026101fc366004610d94565b61082a565b61022461020f366004610a89565b60026020526000908152604090205460ff1681565b604051901515815260200161013f565b61023c6109d8565b60405161013f9190610e03565b610224610257366004610a89565b60016020526000908152604090205460ff1681565b3360009081526002602052604090205460ff166102a45760405162461bcd60e51b815260040161029b90610e4f565b60405180910390fd5b3360009081526001602052604090205460ff166102ff5760405162461bcd60e51b81526020600482015260196024820152782932bb34b2bbb2b91039ba30ba3ab9903932b8bab4b932b21760391b604482015260640161029b565b600081116103605760405162461bcd60e51b815260206004820152602860248201527f4d757374207370656e64206120706f73697469766520616d6f756e74206f662060448201526731b932b234ba399760c11b606482015260840161029b565b81836001600160a01b0316336001600160a01b03167fea33407e85790a766a2d0606c4d50197117892342c11a3517c7fb7ae95722f24846040516103a691815260200190565b60405180910390a4505050565b336001600160a01b037f000000000000000000000000000000000000000000000000000000000000000016146104205760405162461bcd60e51b815260206004820152601260248201527120b236b4b71037b7363c9030b1b1b2b9b99760711b604482015260640161029b565b6001600160a01b03811660009081526001602052604090205460ff16156104895760405162461bcd60e51b815260206004820152601a60248201527f526576696577657220616c726561647920617070726f7665642e000000000000604482015260640161029b565b6001600160a01b0381166000818152600160208190526040808320805460ff1916831790556003805492830181559092527fc2575a0e9e593c00f959f8c92f12db2869c3395a3b0502d05e2516446f71f85b0180546001600160a01b03191683179055517f5fb95fd72b73781d0cbe4670770a10f114874353461bca03c141f7d6e78d49c59061051c9042815260200190565b60405180910390a250565b3360009081526002602052604090205460ff166105565760405162461bcd60e51b815260040161029b90610e4f565b3360009081526001602052604090205460ff166105b15760405162461bcd60e51b81526020600482015260196024820152782932bb34b2bbb2b91039ba30ba3ab9903932b8bab4b932b21760391b604482015260640161029b565b60008160ff161180156105c85750600a8160ff1611155b6106145760405162461bcd60e51b815260206004820181905260248201527f526174696e67206d757374206265206265747765656e203120616e642031302e604482015260640161029b565b60405160ff8216815282906001600160a01b0385169033907f66ff88f340473b146142d1d4bdf08399e20491321cc17fd9a0707d948f36ed19906020016103a6565b336001600160a01b037f000000000000000000000000000000000000000000000000000000000000000016146106c35760405162461bcd60e51b815260206004820152601260248201527120b236b4b71037b7363c9030b1b1b2b9b99760711b604482015260640161029b565b6001600160a01b0382166107235760405162461bcd60e51b815260206004820152602160248201527f43616e64696461746520616464726573732063616e6e6f74206265207a65726f6044820152601760f91b606482015260840161029b565b6040805182151581524260208201526001600160a01b038416917fb7fa2191a876977f651c864ab34c9e8f992e925a58e66f8f6affda9e51d0baee910160405180910390a25050565b6003818154811061077c57600080fd5b6000918252602090912001546001600160a01b0316905081565b336001600160a01b037f000000000000000000000000000000000000000000000000000000000000000016146107df57604051635c427cd960e01b815260040160405180910390fd5b6000828060200190518101906107f59190611038565b9050610825816020908101516001600160a01b03166000908152600290915260409020805460ff19166001179055565b505050565b602083101561084c5760405163a512e2ff60e01b815260040160405180910390fd5b604081101561086e5760405163a512e2ff60e01b815260040160405180910390fd5b8335600061087f6020828587611203565b6108889161122d565b9050600061089a604060208688611203565b6108a39161122d565b905060006108b48560408189611203565b8080601f016020809104026020016040519081016040528093929190818152602001838380828437600092018290525093945061303992506108f4915050565b905060006002600060081b6000548c8c60405160200161091895949392919061124c565b60405160208183030381529060405290507f00000000000000000000000000000000000000000000000000000000000000006001600160a01b031663f7e83aee82848b8b60405160200161096e93929190611287565b6040516020818303038152906040526040518363ffffffff1660e01b815260040161099a9291906112cd565b600060405180830381600087803b1580156109b457600080fd5b505af11580156109c8573d6000803e3d6000fd5b5050505050505050505050505050565b60606003805480602002602001604051908101604052809291908181526020018280548015610a3057602002820191906000526020600020905b81546001600160a01b03168152600190910190602001808311610a12575b5050505050905090565b80356001600160a01b0381168114610a5157600080fd5b919050565b600080600060608486031215610a6b57600080fd5b610a7484610a3a565b95602085013595506040909401359392505050565b600060208284031215610a9b57600080fd5b610aa482610a3a565b9392505050565b634e487b7160e01b600052604160045260246000fd5b6040516101a081016001600160401b0381118282101715610ae457610ae4610aab565b60405290565b604051601f8201601f191681016001600160401b0381118282101715610b1257610b12610aab565b604052919050565b60006001600160401b03821115610b3357610b33610aab565b50601f01601f191660200190565b6000610b54610b4f84610b1a565b610aea565b9050828152838383011115610b6857600080fd5b828260208301376000602084830101529392505050565b600060208284031215610b9157600080fd5b81356001600160401b03811115610ba757600080fd5b8201601f81018413610bb857600080fd5b610bc784823560208401610b41565b949350505050565b600080600060608486031215610be457600080fd5b610bed84610a3a565b925060208401359150604084013560ff81168114610c0a57600080fd5b809150509250925092565b8015158114610c2357600080fd5b50565b60008060408385031215610c3957600080fd5b610c4283610a3a565b91506020830135610c5281610c15565b809150509250929050565b600060208284031215610c6f57600080fd5b5035919050565b600082601f830112610c8757600080fd5b610aa483833560208501610b41565b60008060408385031215610ca957600080fd5b82356001600160401b03811115610cbf57600080fd5b610ccb85828601610c76565b92505060208301356001600160401b03811115610ce757600080fd5b610cf385828601610c76565b9150509250929050565b600080600060608486031215610d1257600080fd5b833592506020840135915060408401356001600160401b03811115610d3657600080fd5b610d4286828701610c76565b9150509250925092565b60008083601f840112610d5e57600080fd5b5081356001600160401b03811115610d7557600080fd5b602083019150836020828501011115610d8d57600080fd5b9250929050565b60008060008060408587031215610daa57600080fd5b84356001600160401b03811115610dc057600080fd5b610dcc87828801610d4c565b90955093505060208501356001600160401b03811115610deb57600080fd5b610df787828801610d4c565b95989497509550505050565b602080825282518282018190526000918401906040840190835b81811015610e445783516001600160a01b0316835260209384019390920191600101610e1d565b509095945050505050565b60208082526023908201527f53656c662050726f746f636f6c20766572696669636174696f6e2072657175696040820152621c995960ea1b606082015260800190565b600082601f830112610ea357600080fd5b610ead6080610aea565b806080840185811115610ebf57600080fd5b845b81811015610e44578051845260209384019301610ec1565b60005b83811015610ef4578181015183820152602001610edc565b50506000910152565b600082601f830112610f0e57600080fd5b8151610f1c610b4f82610b1a565b818152846020838601011115610f3157600080fd5b610bc7826020830160208701610ed9565b600082601f830112610f5357600080fd5b81516001600160401b03811115610f6c57610f6c610aab565b8060051b610f7c60208201610aea565b91825260208185018101929081019086841115610f9857600080fd5b6020860192505b83831015610fde5782516001600160401b03811115610fbd57600080fd5b610fcc886020838a0101610efd565b83525060209283019290910190610f9f565b9695505050505050565b600082601f830112610ff957600080fd5b6110036060610aea565b80606084018581111561101557600080fd5b845b81811015610e4457805161102a81610c15565b845260209384019301611017565b60006020828403121561104a57600080fd5b81516001600160401b0381111561106057600080fd5b8201610240818503121561107357600080fd5b61107b610ac1565b8151815260208083015190820152604080830151908201526110a08560608401610e92565b606082015260e08201516001600160401b038111156110be57600080fd5b6110ca86828501610efd565b6080830152506101008201516001600160401b038111156110ea57600080fd5b6110f686828501610f42565b60a0830152506101208201516001600160401b0381111561111657600080fd5b61112286828501610efd565b60c0830152506101408201516001600160401b0381111561114257600080fd5b61114e86828501610efd565b60e0830152506101608201516001600160401b0381111561116e57600080fd5b61117a86828501610efd565b610100830152506101808201516001600160401b0381111561119b57600080fd5b6111a786828501610efd565b610120830152506101a08201516001600160401b038111156111c857600080fd5b6111d486828501610efd565b610140830152506101c08201516101608201526111f5856101e08401610fe8565b610180820152949350505050565b6000808585111561121357600080fd5b8386111561122057600080fd5b5050820193919092039150565b8035602083101561124657600019602084900360031b1b165b92915050565b60f886901b6001600160f81b031916815260ff1985166001820152602081018490528183604083013760009101604001908152949350505050565b838152818360208301376000910160200190815292915050565b600081518084526112b9816020860160208601610ed9565b601f01601f19169290920160200192915050565b6040815260006112e060408301856112a1565b82810360208401526112f281856112a1565b9594505050505056fea2646970667358221220563c514f80c4a735793d37832250882ba9fb323f44dc9f88b26b609a4ec7210a64736f6c634300081c0033",
  "linkReferences": {},
  "deployedLinkReferences": {}
}