{
    "_format": "hh-sol-artifact-1",
    "contractName": "OnchainTrustNetwork",
    "sourceName": "contracts/OnchainTrustNetwork.sol",
    "abi": [
        {
            "inputs": [
                {
                    "internalType": "address",
                    "name": "_initialDAOAdmin",
                    "type": "address"
                },
                {
                    "internalType": "address",
                    "name": "_selfHub",
                    "type": "address"
                },
                {
                    "internalType": "string",
                    "name": "_scopeSeed",
                    "type": "string"
                },
                {
                    "components": [
                        {
                            "internalType": "uint256",
                            "name": "olderThan",
                            "type": "uint256"
                        },
                        {
                            "internalType": "string[]",
                            "name": "forbiddenCountries",
                            "type": "string[]"
                        },
                        {
                            "internalType": "bool",
                            "name": "ofacEnabled",
                            "type": "bool"
                        }
                    ],
                    "internalType": "struct SelfUtils.UnformattedVerificationConfigV2",
                    "name": "_verificationConfig",
                    "type": "tuple"
                }
            ],
            "stateMutability": "nonpayable",
            "type": "constructor"
        },
        {
            "inputs": [],
            "name": "InvalidDataFormat",
            "type": "error"
        },
        {
            "inputs": [],
            "name": "UnauthorizedCaller",
            "type": "error"
        },
        {
            "anonymous": false,
            "inputs": [
                {
                    "indexed": true,
                    "internalType": "address",
                    "name": "sponsor",
                    "type": "address"
                },
                {
                    "indexed": true,
                    "internalType": "address",
                    "name": "candidate",
                    "type": "address"
                },
                {
                    "indexed": true,
                    "internalType": "bytes32",
                    "name": "jobIdHash",
                    "type": "bytes32"
                },
                {
                    "indexed": false,
                    "internalType": "uint256",
                    "name": "creditsUsed",
                    "type": "uint256"
                }
            ],
            "name": "CreditsSpent",
            "type": "event"
        },
        {
            "anonymous": false,
            "inputs": [
                {
                    "indexed": true,
                    "internalType": "address",
                    "name": "candidate",
                    "type": "address"
                },
                {
                    "indexed": false,
                    "internalType": "bool",
                    "name": "isHired",
                    "type": "bool"
                },
                {
                    "indexed": false,
                    "internalType": "uint256",
                    "name": "timestamp",
                    "type": "uint256"
                }
            ],
            "name": "HiringOutcome",
            "type": "event"
        },
        {
            "anonymous": false,
            "inputs": [
                {
                    "indexed": true,
                    "internalType": "address",
                    "name": "reviewer",
                    "type": "address"
                },
                {
                    "indexed": false,
                    "internalType": "uint256",
                    "name": "timestamp",
                    "type": "uint256"
                }
            ],
            "name": "ReviewerApproved",
            "type": "event"
        },
        {
            "anonymous": false,
            "inputs": [
                {
                    "indexed": true,
                    "internalType": "address",
                    "name": "reviewer",
                    "type": "address"
                },
                {
                    "indexed": true,
                    "internalType": "address",
                    "name": "junior",
                    "type": "address"
                },
                {
                    "indexed": true,
                    "internalType": "bytes32",
                    "name": "skillHash",
                    "type": "bytes32"
                },
                {
                    "indexed": false,
                    "internalType": "uint8",
                    "name": "overallRating",
                    "type": "uint8"
                }
            ],
            "name": "SkillRated",
            "type": "event"
        },
        {
            "inputs": [],
            "name": "DAO_ADMIN",
            "outputs": [
                {
                    "internalType": "address",
                    "name": "",
                    "type": "address"
                }
            ],
            "stateMutability": "view",
            "type": "function"
        },
        {
            "inputs": [
                {
                    "internalType": "uint256",
                    "name": "",
                    "type": "uint256"
                }
            ],
            "name": "ReviewerPool",
            "outputs": [
                {
                    "internalType": "address",
                    "name": "",
                    "type": "address"
                }
            ],
            "stateMutability": "view",
            "type": "function"
        },
        {
            "inputs": [
                {
                    "internalType": "address",
                    "name": "_newReviewer",
                    "type": "address"
                }
            ],
            "name": "approveReviewer",
            "outputs": [],
            "stateMutability": "nonpayable",
            "type": "function"
        },
        {
            "inputs": [
                {
                    "internalType": "bytes32",
                    "name": "",
                    "type": "bytes32"
                },
                {
                    "internalType": "bytes32",
                    "name": "",
                    "type": "bytes32"
                },
                {
                    "internalType": "bytes",
                    "name": "",
                    "type": "bytes"
                }
            ],
            "name": "getConfigId",
            "outputs": [
                {
                    "internalType": "bytes32",
                    "name": "",
                    "type": "bytes32"
                }
            ],
            "stateMutability": "view",
            "type": "function"
        },
        {
            "inputs": [
                {
                    "internalType": "string",
                    "name": "_input",
                    "type": "string"
                }
            ],
            "name": "getHash",
            "outputs": [
                {
                    "internalType": "bytes32",
                    "name": "",
                    "type": "bytes32"
                }
            ],
            "stateMutability": "pure",
            "type": "function"
        },
        {
            "inputs": [],
            "name": "getReviewerPool",
            "outputs": [
                {
                    "internalType": "address[]",
                    "name": "",
                    "type": "address[]"
                }
            ],
            "stateMutability": "view",
            "type": "function"
        },
        {
            "inputs": [
                {
                    "internalType": "address",
                    "name": "",
                    "type": "address"
                }
            ],
            "name": "isReviewer",
            "outputs": [
                {
                    "internalType": "bool",
                    "name": "",
                    "type": "bool"
                }
            ],
            "stateMutability": "view",
            "type": "function"
        },
        {
            "inputs": [
                {
                    "internalType": "bytes",
                    "name": "output",
                    "type": "bytes"
                },
                {
                    "internalType": "bytes",
                    "name": "userData",
                    "type": "bytes"
                }
            ],
            "name": "onVerificationSuccess",
            "outputs": [],
            "stateMutability": "nonpayable",
            "type": "function"
        },
        {
            "inputs": [
                {
                    "internalType": "address",
                    "name": "_juniorDev",
                    "type": "address"
                },
                {
                    "internalType": "bytes32",
                    "name": "_skillHash",
                    "type": "bytes32"
                },
                {
                    "internalType": "uint8",
                    "name": "_rating",
                    "type": "uint8"
                }
            ],
            "name": "rateJunior",
            "outputs": [],
            "stateMutability": "nonpayable",
            "type": "function"
        },
        {
            "inputs": [
                {
                    "internalType": "address",
                    "name": "_candidate",
                    "type": "address"
                },
                {
                    "internalType": "bool",
                    "name": "_isHired",
                    "type": "bool"
                }
            ],
            "name": "recordHiringOutcome",
            "outputs": [],
            "stateMutability": "nonpayable",
            "type": "function"
        },
        {
            "inputs": [],
            "name": "scope",
            "outputs": [
                {
                    "internalType": "uint256",
                    "name": "",
                    "type": "uint256"
                }
            ],
            "stateMutability": "view",
            "type": "function"
        },
        {
            "inputs": [
                {
                    "internalType": "address",
                    "name": "_candidate",
                    "type": "address"
                },
                {
                    "internalType": "bytes32",
                    "name": "_jobIdHash",
                    "type": "bytes32"
                },
                {
                    "internalType": "uint256",
                    "name": "_credits",
                    "type": "uint256"
                }
            ],
            "name": "sponsorApplication",
            "outputs": [],
            "stateMutability": "nonpayable",
            "type": "function"
        },
        {
            "inputs": [],
            "name": "verificationConfig",
            "outputs": [
                {
                    "internalType": "bool",
                    "name": "olderThanEnabled",
                    "type": "bool"
                },
                {
                    "internalType": "uint256",
                    "name": "olderThan",
                    "type": "uint256"
                },
                {
                    "internalType": "bool",
                    "name": "forbiddenCountriesEnabled",
                    "type": "bool"
                }
            ],
            "stateMutability": "view",
            "type": "function"
        },
        {
            "inputs": [],
            "name": "verificationConfigId",
            "outputs": [
                {
                    "internalType": "bytes32",
                    "name": "",
                    "type": "bytes32"
                }
            ],
            "stateMutability": "view",
            "type": "function"
        },
        {
            "inputs": [
                {
                    "internalType": "address",
                    "name": "",
                    "type": "address"
                }
            ],
            "name": "verifiedUsers",
            "outputs": [
                {
                    "internalType": "bool",
                    "name": "",
                    "type": "bool"
                }
            ],
            "stateMutability": "view",
            "type": "function"
        },
        {
            "inputs": [
                {
                    "internalType": "bytes",
                    "name": "proofPayload",
                    "type": "bytes"
                },
                {
                    "internalType": "bytes",
                    "name": "userContextData",
                    "type": "bytes"
                }
            ],
            "name": "verifySelfProof",
            "outputs": [],
            "stateMutability": "nonpayable",
            "type": "function"
        }
    ],
    "bytecode": "0x60c060405234801561001057600080fd5b5060405161230138038061230183398101604081905261002f91610c2d565b6001600160a01b0383166080528282610050308261004b6101df565b610234565b60009081556001600160a01b03871660a08190528082526001602081905260408320805460ff1916821790556003805491820181559092527fc2575a0e9e593c00f959f8c92f12db2869c3395a3b0502d05e2516446f71f85b90910180546001600160a01b0319169091179055506100c99050816102f1565b80516004805491151560ff1992831617815560208301516005556040830151600680549115159190931617909155606082015161010990600790836109aa565b50608082015161011f90600783019060036109e8565b50506040516309ddb09160e01b81526001600160a01b03851691506309ddb0919061014e906004908101610d9a565b6020604051808303816000875af115801561016d573d6000803e3d6000fd5b505050506040513d601f19601f820116820180604052508101906101919190610e22565b600c5560a0516040514281526001600160a01b03909116907f5fb95fd72b73781d0cbe4670770a10f114874353461bca03c141f7d6e78d49c59060200160405180910390a250505050610f3f565b60004661a4ec8190036102075773f134707a4c4a3a76b8410fc0294d620a7c34158191505090565b8062aa044c0361022c57730a782f7f9f8aac6e0bacaf3cd4aa292c3275c6f291505090565b600091505090565b60006001600160a01b03821661024c575060006102ea565b60006102588584610363565b9050600061026585610427565b604080518082018252848152602081018390529051632b0aac7f60e11b81529192506001600160a01b0386169163561558fe916102a491600401610e3b565b602060405180830381865afa1580156102c1573d6000803e3d6000fd5b505050506040513d601f19601f820116820180604052508101906102e59190610e22565b925050505b9392505050565b6102f9610a75565b610301610ab3565b6040838101805115158352805115156020808501919091529051151583830152815160a081018352855115158152855181830152908501805151151592820192909252905160608201906103549061053f565b81526020019190915292915050565b60008061036f84610707565b905060006103876103828383601f6108e8565b610427565b9050600061039b61038284601f602a6108e8565b604080518082018252848152602081018390529051632b0aac7f60e11b81529192506001600160a01b0387169163561558fe916103da91600401610e3b565b602060405180830381865afa1580156103f7573d6000803e3d6000fd5b505050506040513d601f19601f8201168201806040525081019061041b9190610e22565b93505050505b92915050565b600080829050601f815111156104925760405162461bcd60e51b815260206004820152602560248201527f537472696e6720746f6f206c6f6e6720666f7220426967496e7420636f6e76656044820152643939b4b7b760d91b60648201526084015b60405180910390fd5b6000805b825181101561053757607f8382815181106104b3576104b3610e6c565b016020015160f81c11156105095760405162461bcd60e51b815260206004820152601c60248201527f4e6f6e2d415343494920636861726163746572206465746563746564000000006044820152606401610489565b82818151811061051b5761051b610e6c565b60209101015160f81c60089290921b9190911790600101610496565b509392505050565b610547610ad1565b601f6004606060005b855181101561061c57600086828151811061056d5761056d610e6c565b6020026020010151905080516003146105ee5760405162461bcd60e51b815260206004820152603760248201527f496e76616c696420636f756e74727920636f64653a206d75737420626520657860448201527f6163746c7920332063686172616374657273206c6f6e670000000000000000006064820152608401610489565b8281604051602001610601929190610e82565b60408051601f19818403018152919052925050600101610550565b50805183600081600161062f8286610ec7565b6106399190610eda565b6106439190610eed565b905060005b818110801561065657508581105b156106fb576000805b848110156106cf576000816106748588610f0f565b61067e9190610ec7565b9050868110156106c657600088828151811061069c5761069c610e6c565b016020015160f81c905060006106b3846008610f0f565b90506106c182821b86610ec7565b945050505b5060010161065f565b50808983600481106106e3576106e3610e6c565b602002015250806106f381610f26565b915050610648565b50505050505050919050565b604080518082018252601081526f181899199a1a9b1b9c1cb0b131b232b360811b60208201528151602a80825260608281019094526001600160a01b0385169291600091602082018180368337019050509050600360fc1b8160008151811061077257610772610e6c565b60200101906001600160f81b031916908160001a905350600f60fb1b816001815181106107a1576107a1610e6c565b60200101906001600160f81b031916908160001a90535060005b60148110156108df57826004856107d384600c610ec7565b602081106107e3576107e3610e6c565b1a60f81b6001600160f81b031916901c60f81c60ff168151811061080957610809610e6c565b01602001516001600160f81b03191682610824836002610f0f565b61082f906002610ec7565b8151811061083f5761083f610e6c565b60200101906001600160f81b031916908160001a905350828461086383600c610ec7565b6020811061087357610873610e6c565b825191901a600f1690811061088a5761088a610e6c565b01602001516001600160f81b031916826108a5836002610f0f565b6108b0906003610ec7565b815181106108c0576108c0610e6c565b60200101906001600160f81b031916908160001a9053506001016107bb565b50949350505050565b60608360006108f78585610eda565b6001600160401b0381111561090e5761090e610b20565b6040519080825280601f01601f191660200182016040528015610938576020820181803683370190505b509050845b848110156109a05782818151811061095757610957610e6c565b01602001516001600160f81b031916826109718884610eda565b8151811061098157610981610e6c565b60200101906001600160f81b031916908160001a90535060010161093d565b5095945050505050565b82600481019282156109d8579160200282015b828111156109d85782518255916020019190600101906109bd565b506109e4929150610aef565b5090565b6001830191839082156109d85791602002820160005b83821115610a3b57835183826101000a81548160ff02191690831515021790555092602001926001016020816000010492830192600103026109fe565b8015610a685782816101000a81549060ff0219169055600101602081600001049283019260010302610a3b565b50506109e4929150610aef565b6040518060a0016040528060001515815260200160008152602001600015158152602001610aa1610ad1565b8152602001610aae610ab3565b905290565b60405180606001604052806003906020820280368337509192915050565b60405180608001604052806004906020820280368337509192915050565b5b808211156109e45760008155600101610af0565b80516001600160a01b0381168114610b1b57600080fd5b919050565b634e487b7160e01b600052604160045260246000fd5b604051606081016001600160401b0381118282101715610b5857610b58610b20565b60405290565b604051601f8201601f191681016001600160401b0381118282101715610b8657610b86610b20565b604052919050565b60005b83811015610ba9578181015183820152602001610b91565b50506000910152565b600082601f830112610bc357600080fd5b81516001600160401b03811115610bdc57610bdc610b20565b610bef601f8201601f1916602001610b5e565b818152846020838601011115610c0457600080fd5b610c15826020830160208701610b8e565b949350505050565b80518015158114610b1b57600080fd5b60008060008060808587031215610c4357600080fd5b610c4c85610b04565b9350610c5a60208601610b04565b60408601519093506001600160401b03811115610c7657600080fd5b610c8287828801610bb2565b606087015190935090506001600160401b03811115610ca057600080fd5b850160608188031215610cb257600080fd5b610cba610b36565b8151815260208201516001600160401b03811115610cd757600080fd5b8201601f81018913610ce857600080fd5b80516001600160401b03811115610d0157610d01610b20565b8060051b610d1160208201610b5e565b9182526020818401810192908101908c841115610d2d57600080fd5b6020850192505b83831015610d735782516001600160401b03811115610d5257600080fd5b610d618e602083890101610bb2565b83525060209283019290910190610d34565b602086015250610d899250505060408301610c1d565b604082015294979396509194505050565b815460ff9081161515825260018301546020830152600283015416151560408201526101408101606082016003840160005b6004811015610deb578154835260209092019160019182019101610dcc565b505050600783015460ff808216151560e0850152600882901c8116151561010085015260109190911c161515610120830152610421565b600060208284031215610e3457600080fd5b5051919050565b60408101818360005b6002811015610e63578151835260209283019290910190600101610e44565b50505092915050565b634e487b7160e01b600052603260045260246000fd5b60008351610e94818460208801610b8e565b835190830190610ea8818360208801610b8e565b01949350505050565b634e487b7160e01b600052601160045260246000fd5b8082018082111561042157610421610eb1565b8181038181111561042157610421610eb1565b600082610f0a57634e487b7160e01b600052601260045260246000fd5b500490565b808202811582820484141761042157610421610eb1565b600060018201610f3857610f38610eb1565b5060010190565b60805160a051611388610f796000396000818161015b0152818161041401526106b70152600081816107f7015261098201526113886000f3fe608060405234801561001057600080fd5b50600436106101005760003560e01c80638386c86011610097578063d161802b11610066578063d161802b14610244578063e35fe36614610257578063ee7b216e1461028a578063fdc6258a1461029f57600080fd5b80638386c860146101fd5780638d2d8d6a14610210578063ada1b31914610223578063bb4437441461023b57600080fd5b80635b6beeb9116100d35780635b6beeb9146101a85780636621b67a146101cf5780636e62d0a8146101e257806376fa5a1b146101ea57600080fd5b8063037b410e146101055780631e7c19dc14610141578063468c8a6114610156578063514d46d314610195575b600080fd5b60045460055460065461011d9260ff90811692911683565b60408051931515845260208401929092521515908201526060015b60405180910390f35b61015461014f366004610aad565b6102c2565b005b61017d7f000000000000000000000000000000000000000000000000000000000000000081565b6040516001600160a01b039091168152602001610138565b6101546101a3366004610ae0565b610409565b6101c16101b6366004610bd6565b805160209091012090565b604051908152602001610138565b6101546101dd366004610c26565b61057d565b6000546101c1565b6101546101f8366004610c7d565b6106ac565b61017d61020b366004610cb4565b6107c2565b61015461021e366004610ced565b6107ec565b6101c1610231366004610d54565b600c549392505050565b6101c1600c5481565b610154610252366004610deb565b610880565b61027a610265366004610ae0565b60026020526000908152604090205460ff1681565b6040519015158152602001610138565b610292610a2f565b6040516101389190610e5a565b61027a6102ad366004610ae0565b60016020526000908152604090205460ff1681565b3360009081526002602052604090205460ff166102fa5760405162461bcd60e51b81526004016102f190610ea6565b60405180910390fd5b3360009081526001602052604090205460ff166103555760405162461bcd60e51b81526020600482015260196024820152782932bb34b2bbb2b91039ba30ba3ab9903932b8bab4b932b21760391b60448201526064016102f1565b600081116103b65760405162461bcd60e51b815260206004820152602860248201527f4d757374207370656e64206120706f73697469766520616d6f756e74206f662060448201526731b932b234ba399760c11b60648201526084016102f1565b81836001600160a01b0316336001600160a01b03167fea33407e85790a766a2d0606c4d50197117892342c11a3517c7fb7ae95722f24846040516103fc91815260200190565b60405180910390a4505050565b336001600160a01b037f000000000000000000000000000000000000000000000000000000000000000016146104765760405162461bcd60e51b815260206004820152601260248201527120b236b4b71037b7363c9030b1b1b2b9b99760711b60448201526064016102f1565b6001600160a01b03811660009081526001602052604090205460ff16156104df5760405162461bcd60e51b815260206004820152601a60248201527f526576696577657220616c726561647920617070726f7665642e00000000000060448201526064016102f1565b6001600160a01b0381166000818152600160208190526040808320805460ff1916831790556003805492830181559092527fc2575a0e9e593c00f959f8c92f12db2869c3395a3b0502d05e2516446f71f85b0180546001600160a01b03191683179055517f5fb95fd72b73781d0cbe4670770a10f114874353461bca03c141f7d6e78d49c5906105729042815260200190565b60405180910390a250565b3360009081526002602052604090205460ff166105ac5760405162461bcd60e51b81526004016102f190610ea6565b3360009081526001602052604090205460ff166106075760405162461bcd60e51b81526020600482015260196024820152782932bb34b2bbb2b91039ba30ba3ab9903932b8bab4b932b21760391b60448201526064016102f1565b60008160ff1611801561061e5750600a8160ff1611155b61066a5760405162461bcd60e51b815260206004820181905260248201527f526174696e67206d757374206265206265747765656e203120616e642031302e60448201526064016102f1565b60405160ff8216815282906001600160a01b0385169033907f66ff88f340473b146142d1d4bdf08399e20491321cc17fd9a0707d948f36ed19906020016103fc565b336001600160a01b037f000000000000000000000000000000000000000000000000000000000000000016146107195760405162461bcd60e51b815260206004820152601260248201527120b236b4b71037b7363c9030b1b1b2b9b99760711b60448201526064016102f1565b6001600160a01b0382166107795760405162461bcd60e51b815260206004820152602160248201527f43616e64696461746520616464726573732063616e6e6f74206265207a65726f6044820152601760f91b60648201526084016102f1565b6040805182151581524260208201526001600160a01b038416917fb7fa2191a876977f651c864ab34c9e8f992e925a58e66f8f6affda9e51d0baee910160405180910390a25050565b600381815481106107d257600080fd5b6000918252602090912001546001600160a01b0316905081565b336001600160a01b037f0000000000000000000000000000000000000000000000000000000000000000161461083557604051635c427cd960e01b815260040160405180910390fd5b60008280602001905181019061084b919061108f565b905061087b816020908101516001600160a01b03166000908152600290915260409020805460ff19166001179055565b505050565b60208310156108a25760405163a512e2ff60e01b815260040160405180910390fd5b60408110156108c45760405163a512e2ff60e01b815260040160405180910390fd5b833560006108d5602082858761125a565b6108de91611284565b905060006108f060406020868861125a565b6108f991611284565b9050600061090a856040818961125a565b8080601f0160208091040260200160405190810160405280939291908181526020018383808284376000920182905250600c5494955093925061094b915050565b905060006002600060081b6000548c8c60405160200161096f9594939291906112a3565b60405160208183030381529060405290507f00000000000000000000000000000000000000000000000000000000000000006001600160a01b031663f7e83aee82848b8b6040516020016109c5939291906112de565b6040516020818303038152906040526040518363ffffffff1660e01b81526004016109f1929190611324565b600060405180830381600087803b158015610a0b57600080fd5b505af1158015610a1f573d6000803e3d6000fd5b5050505050505050505050505050565b60606003805480602002602001604051908101604052809291908181526020018280548015610a8757602002820191906000526020600020905b81546001600160a01b03168152600190910190602001808311610a69575b5050505050905090565b80356001600160a01b0381168114610aa857600080fd5b919050565b600080600060608486031215610ac257600080fd5b610acb84610a91565b95602085013595506040909401359392505050565b600060208284031215610af257600080fd5b610afb82610a91565b9392505050565b634e487b7160e01b600052604160045260246000fd5b6040516101a081016001600160401b0381118282101715610b3b57610b3b610b02565b60405290565b604051601f8201601f191681016001600160401b0381118282101715610b6957610b69610b02565b604052919050565b60006001600160401b03821115610b8a57610b8a610b02565b50601f01601f191660200190565b6000610bab610ba684610b71565b610b41565b9050828152838383011115610bbf57600080fd5b828260208301376000602084830101529392505050565b600060208284031215610be857600080fd5b81356001600160401b03811115610bfe57600080fd5b8201601f81018413610c0f57600080fd5b610c1e84823560208401610b98565b949350505050565b600080600060608486031215610c3b57600080fd5b610c4484610a91565b925060208401359150604084013560ff81168114610c6157600080fd5b809150509250925092565b8015158114610c7a57600080fd5b50565b60008060408385031215610c9057600080fd5b610c9983610a91565b91506020830135610ca981610c6c565b809150509250929050565b600060208284031215610cc657600080fd5b5035919050565b600082601f830112610cde57600080fd5b610afb83833560208501610b98565b60008060408385031215610d0057600080fd5b82356001600160401b03811115610d1657600080fd5b610d2285828601610ccd565b92505060208301356001600160401b03811115610d3e57600080fd5b610d4a85828601610ccd565b9150509250929050565b600080600060608486031215610d6957600080fd5b833592506020840135915060408401356001600160401b03811115610d8d57600080fd5b610d9986828701610ccd565b9150509250925092565b60008083601f840112610db557600080fd5b5081356001600160401b03811115610dcc57600080fd5b602083019150836020828501011115610de457600080fd5b9250929050565b60008060008060408587031215610e0157600080fd5b84356001600160401b03811115610e1757600080fd5b610e2387828801610da3565b90955093505060208501356001600160401b03811115610e4257600080fd5b610e4e87828801610da3565b95989497509550505050565b602080825282518282018190526000918401906040840190835b81811015610e9b5783516001600160a01b0316835260209384019390920191600101610e74565b509095945050505050565b60208082526023908201527f53656c662050726f746f636f6c20766572696669636174696f6e2072657175696040820152621c995960ea1b606082015260800190565b600082601f830112610efa57600080fd5b610f046080610b41565b806080840185811115610f1657600080fd5b845b81811015610e9b578051845260209384019301610f18565b60005b83811015610f4b578181015183820152602001610f33565b50506000910152565b600082601f830112610f6557600080fd5b8151610f73610ba682610b71565b818152846020838601011115610f8857600080fd5b610c1e826020830160208701610f30565b600082601f830112610faa57600080fd5b81516001600160401b03811115610fc357610fc3610b02565b8060051b610fd360208201610b41565b91825260208185018101929081019086841115610fef57600080fd5b6020860192505b838310156110355782516001600160401b0381111561101457600080fd5b611023886020838a0101610f54565b83525060209283019290910190610ff6565b9695505050505050565b600082601f83011261105057600080fd5b61105a6060610b41565b80606084018581111561106c57600080fd5b845b81811015610e9b57805161108181610c6c565b84526020938401930161106e565b6000602082840312156110a157600080fd5b81516001600160401b038111156110b757600080fd5b820161024081850312156110ca57600080fd5b6110d2610b18565b8151815260208083015190820152604080830151908201526110f78560608401610ee9565b606082015260e08201516001600160401b0381111561111557600080fd5b61112186828501610f54565b6080830152506101008201516001600160401b0381111561114157600080fd5b61114d86828501610f99565b60a0830152506101208201516001600160401b0381111561116d57600080fd5b61117986828501610f54565b60c0830152506101408201516001600160401b0381111561119957600080fd5b6111a586828501610f54565b60e0830152506101608201516001600160401b038111156111c557600080fd5b6111d186828501610f54565b610100830152506101808201516001600160401b038111156111f257600080fd5b6111fe86828501610f54565b610120830152506101a08201516001600160401b0381111561121f57600080fd5b61122b86828501610f54565b610140830152506101c082015161016082015261124c856101e0840161103f565b610180820152949350505050565b6000808585111561126a57600080fd5b8386111561127757600080fd5b5050820193919092039150565b8035602083101561129d57600019602084900360031b1b165b92915050565b60f886901b6001600160f81b031916815260ff1985166001820152602081018490528183604083013760009101604001908152949350505050565b838152818360208301376000910160200190815292915050565b60008151808452611310816020860160208601610f30565b601f01601f19169290920160200192915050565b60408152600061133760408301856112f8565b828103602084015261134981856112f8565b9594505050505056fea2646970667358221220b97a0d0b2c364e09a885908d923f5940a92a16bc3a3af53dae67c7d57b4103af64736f6c634300081c0033",
    "linkReferences": {},
    "deployedLinkReferences": {}
}